{
  "_format": "hh-sol-artifact-1",
  "contractName": "NFTMarketplace",
  "sourceName": "contracts/NFTMarketplace.sol",
  "abi": [
    {
      "inputs": [],
      "stateMutability": "nonpayable",
      "type": "constructor"
    },
    {
      "anonymous": false,
      "inputs": [
        {
          "indexed": true,
          "internalType": "address",
          "name": "owner",
          "type": "address"
        },
        {
          "indexed": true,
          "internalType": "address",
          "name": "approved",
          "type": "address"
        },
        {
          "indexed": true,
          "internalType": "uint256",
          "name": "tokenId",
          "type": "uint256"
        }
      ],
      "name": "Approval",
      "type": "event"
    },
    {
      "anonymous": false,
      "inputs": [
        {
          "indexed": true,
          "internalType": "address",
          "name": "owner",
          "type": "address"
        },
        {
          "indexed": true,
          "internalType": "address",
          "name": "operator",
          "type": "address"
        },
        {
          "indexed": false,
          "internalType": "bool",
          "name": "approved",
          "type": "bool"
        }
      ],
      "name": "ApprovalForAll",
      "type": "event"
    },
    {
      "anonymous": false,
      "inputs": [
        {
          "indexed": true,
          "internalType": "address",
          "name": "from",
          "type": "address"
        },
        {
          "indexed": true,
          "internalType": "address",
          "name": "to",
          "type": "address"
        },
        {
          "indexed": true,
          "internalType": "uint256",
          "name": "tokenId",
          "type": "uint256"
        }
      ],
      "name": "Transfer",
      "type": "event"
    },
    {
      "inputs": [
        {
          "internalType": "address",
          "name": "to",
          "type": "address"
        },
        {
          "internalType": "uint256",
          "name": "tokenId",
          "type": "uint256"
        }
      ],
      "name": "approve",
      "outputs": [],
      "stateMutability": "nonpayable",
      "type": "function"
    },
    {
      "inputs": [
        {
          "internalType": "address",
          "name": "owner",
          "type": "address"
        }
      ],
      "name": "balanceOf",
      "outputs": [
        {
          "internalType": "uint256",
          "name": "",
          "type": "uint256"
        }
      ],
      "stateMutability": "view",
      "type": "function"
    },
    {
      "inputs": [
        {
          "internalType": "string",
          "name": "_tokenURI",
          "type": "string"
        },
        {
          "internalType": "uint256",
          "name": "_price",
          "type": "uint256"
        },
        {
          "internalType": "uint256",
          "name": "_royalty",
          "type": "uint256"
        }
      ],
      "name": "createAndListNFT",
      "outputs": [
        {
          "internalType": "uint256",
          "name": "",
          "type": "uint256"
        }
      ],
      "stateMutability": "payable",
      "type": "function"
    },
    {
      "inputs": [],
      "name": "getAllNFTs",
      "outputs": [
        {
          "components": [
            {
              "internalType": "uint256",
              "name": "_tokenId",
              "type": "uint256"
            },
            {
              "internalType": "address payable",
              "name": "creator",
              "type": "address"
            },
            {
              "internalType": "address payable",
              "name": "currentHolder",
              "type": "address"
            },
            {
              "internalType": "uint256",
              "name": "Royalty",
              "type": "uint256"
            },
            {
              "internalType": "uint256",
              "name": "price",
              "type": "uint256"
            },
            {
              "internalType": "bool",
              "name": "isListed",
              "type": "bool"
            }
          ],
          "internalType": "struct NFTMarketplace.listedNFT[]",
          "name": "",
          "type": "tuple[]"
        }
      ],
      "stateMutability": "view",
      "type": "function"
    },
    {
      "inputs": [
        {
          "internalType": "uint256",
          "name": "tokenId",
          "type": "uint256"
        }
      ],
      "name": "getApproved",
      "outputs": [
        {
          "internalType": "address",
          "name": "",
          "type": "address"
        }
      ],
      "stateMutability": "view",
      "type": "function"
    },
    {
      "inputs": [],
      "name": "getCurrentTokenId",
      "outputs": [
        {
          "internalType": "uint256",
          "name": "",
          "type": "uint256"
        }
      ],
      "stateMutability": "view",
      "type": "function"
    },
    {
      "inputs": [],
      "name": "getListingFee",
      "outputs": [
        {
          "internalType": "uint256",
          "name": "",
          "type": "uint256"
        }
      ],
      "stateMutability": "view",
      "type": "function"
    },
    {
      "inputs": [],
      "name": "getMyNFTs",
      "outputs": [
        {
          "components": [
            {
              "internalType": "uint256",
              "name": "_tokenId",
              "type": "uint256"
            },
            {
              "internalType": "address payable",
              "name": "creator",
              "type": "address"
            },
            {
              "internalType": "address payable",
              "name": "currentHolder",
              "type": "address"
            },
            {
              "internalType": "uint256",
              "name": "Royalty",
              "type": "uint256"
            },
            {
              "internalType": "uint256",
              "name": "price",
              "type": "uint256"
            },
            {
              "internalType": "bool",
              "name": "isListed",
              "type": "bool"
            }
          ],
          "internalType": "struct NFTMarketplace.listedNFT[]",
          "name": "",
          "type": "tuple[]"
        }
      ],
      "stateMutability": "view",
      "type": "function"
    },
    {
      "inputs": [
        {
          "internalType": "uint256",
          "name": "_TokenId",
          "type": "uint256"
        }
      ],
      "name": "getNFT",
      "outputs": [
        {
          "components": [
            {
              "internalType": "uint256",
              "name": "_tokenId",
              "type": "uint256"
            },
            {
              "internalType": "address payable",
              "name": "creator",
              "type": "address"
            },
            {
              "internalType": "address payable",
              "name": "currentHolder",
              "type": "address"
            },
            {
              "internalType": "uint256",
              "name": "Royalty",
              "type": "uint256"
            },
            {
              "internalType": "uint256",
              "name": "price",
              "type": "uint256"
            },
            {
              "internalType": "bool",
              "name": "isListed",
              "type": "bool"
            }
          ],
          "internalType": "struct NFTMarketplace.listedNFT",
          "name": "",
          "type": "tuple"
        }
      ],
      "stateMutability": "view",
      "type": "function"
    },
    {
      "inputs": [
        {
          "internalType": "address",
          "name": "owner",
          "type": "address"
        },
        {
          "internalType": "address",
          "name": "operator",
          "type": "address"
        }
      ],
      "name": "isApprovedForAll",
      "outputs": [
        {
          "internalType": "bool",
          "name": "",
          "type": "bool"
        }
      ],
      "stateMutability": "view",
      "type": "function"
    },
    {
      "inputs": [],
      "name": "latestNFTminted",
      "outputs": [
        {
          "components": [
            {
              "internalType": "uint256",
              "name": "_tokenId",
              "type": "uint256"
            },
            {
              "internalType": "address payable",
              "name": "creator",
              "type": "address"
            },
            {
              "internalType": "address payable",
              "name": "currentHolder",
              "type": "address"
            },
            {
              "internalType": "uint256",
              "name": "Royalty",
              "type": "uint256"
            },
            {
              "internalType": "uint256",
              "name": "price",
              "type": "uint256"
            },
            {
              "internalType": "bool",
              "name": "isListed",
              "type": "bool"
            }
          ],
          "internalType": "struct NFTMarketplace.listedNFT",
          "name": "",
          "type": "tuple"
        }
      ],
      "stateMutability": "view",
      "type": "function"
    },
    {
      "inputs": [],
      "name": "name",
      "outputs": [
        {
          "internalType": "string",
          "name": "",
          "type": "string"
        }
      ],
      "stateMutability": "view",
      "type": "function"
    },
    {
      "inputs": [
        {
          "internalType": "uint256",
          "name": "tokenId",
          "type": "uint256"
        }
      ],
      "name": "ownerOf",
      "outputs": [
        {
          "internalType": "address",
          "name": "",
          "type": "address"
        }
      ],
      "stateMutability": "view",
      "type": "function"
    },
    {
      "inputs": [
        {
          "internalType": "uint256",
          "name": "tokenId",
          "type": "uint256"
        }
      ],
      "name": "processPurchase",
      "outputs": [],
      "stateMutability": "payable",
      "type": "function"
    },
    {
      "inputs": [
        {
          "internalType": "address",
          "name": "from",
          "type": "address"
        },
        {
          "internalType": "address",
          "name": "to",
          "type": "address"
        },
        {
          "internalType": "uint256",
          "name": "tokenId",
          "type": "uint256"
        }
      ],
      "name": "safeTransferFrom",
      "outputs": [],
      "stateMutability": "nonpayable",
      "type": "function"
    },
    {
      "inputs": [
        {
          "internalType": "address",
          "name": "from",
          "type": "address"
        },
        {
          "internalType": "address",
          "name": "to",
          "type": "address"
        },
        {
          "internalType": "uint256",
          "name": "tokenId",
          "type": "uint256"
        },
        {
          "internalType": "bytes",
          "name": "data",
          "type": "bytes"
        }
      ],
      "name": "safeTransferFrom",
      "outputs": [],
      "stateMutability": "nonpayable",
      "type": "function"
    },
    {
      "inputs": [
        {
          "internalType": "uint256",
          "name": "tokenId",
          "type": "uint256"
        },
        {
          "internalType": "uint256",
          "name": "sellingPrice",
          "type": "uint256"
        }
      ],
      "name": "sellMyNFT",
      "outputs": [],
      "stateMutability": "payable",
      "type": "function"
    },
    {
      "inputs": [
        {
          "internalType": "address",
          "name": "operator",
          "type": "address"
        },
        {
          "internalType": "bool",
          "name": "approved",
          "type": "bool"
        }
      ],
      "name": "setApprovalForAll",
      "outputs": [],
      "stateMutability": "nonpayable",
      "type": "function"
    },
    {
      "inputs": [
        {
          "internalType": "bytes4",
          "name": "interfaceId",
          "type": "bytes4"
        }
      ],
      "name": "supportsInterface",
      "outputs": [
        {
          "internalType": "bool",
          "name": "",
          "type": "bool"
        }
      ],
      "stateMutability": "view",
      "type": "function"
    },
    {
      "inputs": [],
      "name": "symbol",
      "outputs": [
        {
          "internalType": "string",
          "name": "",
          "type": "string"
        }
      ],
      "stateMutability": "view",
      "type": "function"
    },
    {
      "inputs": [
        {
          "internalType": "uint256",
          "name": "tokenId",
          "type": "uint256"
        }
      ],
      "name": "tokenURI",
      "outputs": [
        {
          "internalType": "string",
          "name": "",
          "type": "string"
        }
      ],
      "stateMutability": "view",
      "type": "function"
    },
    {
      "inputs": [
        {
          "internalType": "address",
          "name": "from",
          "type": "address"
        },
        {
          "internalType": "address",
          "name": "to",
          "type": "address"
        },
        {
          "internalType": "uint256",
          "name": "tokenId",
          "type": "uint256"
        }
      ],
      "name": "transferFrom",
      "outputs": [],
      "stateMutability": "nonpayable",
      "type": "function"
    },
    {
      "inputs": [
        {
          "internalType": "uint256",
          "name": "_newListingFee",
          "type": "uint256"
        }
      ],
      "name": "updateListingFee",
      "outputs": [],
      "stateMutability": "payable",
      "type": "function"
    }
  ],
  "bytecode": "0x60806040526509184e72a000600a556000600b553480156200002057600080fd5b50604080518082018252600981526813919513585c9ad95d60ba1b60208083019182528351808501909452600384526213919560ea1b9084015281519192916200006d916000916200009e565b508051620000839060019060208401906200009e565b5050600780546001600160a01b031916331790555062000181565b828054620000ac9062000144565b90600052602060002090601f016020900481019282620000d057600085556200011b565b82601f10620000eb57805160ff19168380011785556200011b565b828001600101855582156200011b579182015b828111156200011b578251825591602001919060010190620000fe565b50620001299291506200012d565b5090565b5b808211156200012957600081556001016200012e565b600181811c908216806200015957607f821691505b602082108114156200017b57634e487b7160e01b600052602260045260246000fd5b50919050565b6123f880620001916000396000f3fe6080604052600436106101405760003560e01c80636ef13dcc116100b6578063c87b56dd1161006f578063c87b56dd1461037a578063e0391b091461039a578063e985e9c5146103af578063f34d4525146103cf578063f79d91ae146103e2578063fb139d1b146103f557600080fd5b80636ef13dcc146102dd57806370a08231146102f057806395d89b4114610310578063a22cb46514610325578063b88d4fde14610345578063b8fe6abe1461036557600080fd5b806342842e0e1161010857806342842e0e146102165780635618923614610236578063576f7ea714610259578063629cb2e4146102865780636352211e146102a85780636ed409d5146102c857600080fd5b806301ffc9a71461014557806306fdde031461017a578063081812fc1461019c578063095ea7b3146101d457806323b872dd146101f6575b600080fd5b34801561015157600080fd5b50610165610160366004611f74565b610408565b60405190151581526020015b60405180910390f35b34801561018657600080fd5b5061018f61045a565b6040516101719190612174565b3480156101a857600080fd5b506101bc6101b736600461200b565b6104ec565b6040516001600160a01b039091168152602001610171565b3480156101e057600080fd5b506101f46101ef366004611f4b565b610513565b005b34801561020257600080fd5b506101f4610211366004611e5d565b61062e565b34801561022257600080fd5b506101f4610231366004611e5d565b61065f565b34801561024257600080fd5b5061024b61067a565b604051908152602001610171565b34801561026557600080fd5b5061027961027436600461200b565b61068a565b604051610171919061226b565b34801561029257600080fd5b5061029b6106fe565b6040516101719190612126565b3480156102b457600080fd5b506101bc6102c336600461200b565b61094d565b3480156102d457600080fd5b506102796109ad565b6101f46102eb36600461200b565b610a2e565b3480156102fc57600080fd5b5061024b61030b366004611e11565b610bf5565b34801561031c57600080fd5b5061018f610c7b565b34801561033157600080fd5b506101f4610340366004611f11565b610c8a565b34801561035157600080fd5b506101f4610360366004611e98565b610c99565b34801561037157600080fd5b50600a5461024b565b34801561038657600080fd5b5061018f61039536600461200b565b610cd1565b3480156103a657600080fd5b5061029b610de2565b3480156103bb57600080fd5b506101656103ca366004611e2b565b610f36565b6101f46103dd366004612023565b610f64565b6101f46103f036600461200b565b61107f565b61024b610403366004611fac565b611104565b60006001600160e01b031982166380ac58cd60e01b148061043957506001600160e01b03198216635b5e139f60e01b145b8061045457506301ffc9a760e01b6001600160e01b03198316145b92915050565b6060600080546104699061232a565b80601f01602080910402602001604051908101604052809291908181526020018280546104959061232a565b80156104e25780601f106104b7576101008083540402835291602001916104e2565b820191906000526020600020905b8154815290600101906020018083116104c557829003601f168201915b5050505050905090565b60006104f782611243565b506000908152600460205260409020546001600160a01b031690565b600061051e8261094d565b9050806001600160a01b0316836001600160a01b031614156105915760405162461bcd60e51b815260206004820152602160248201527f4552433732313a20617070726f76616c20746f2063757272656e74206f776e656044820152603960f91b60648201526084015b60405180910390fd5b336001600160a01b03821614806105ad57506105ad8133610f36565b61061f5760405162461bcd60e51b815260206004820152603d60248201527f4552433732313a20617070726f76652063616c6c6572206973206e6f7420746f60448201527f6b656e206f776e6572206f7220617070726f76656420666f7220616c6c0000006064820152608401610588565b61062983836112a5565b505050565b6106383382611313565b6106545760405162461bcd60e51b815260040161058890612187565b610629838383611371565b61062983838360405180602001604052806000815250610c99565b600061068560085490565b905090565b610692611c9c565b506000908152600c6020908152604091829020825160c0810184528154815260018201546001600160a01b0390811693820193909352600282015490921692820192909252600382015460608201526004820154608082015260059091015460ff16151560a082015290565b6060600061070b60085490565b905060008060005b838110156107a35733600c600061072b846001612279565b81526020810191909152604001600020600201546001600160a01b0316148061077e575033600c600061075f846001612279565b81526020810191909152604001600020600101546001600160a01b0316145b156107915761078e600183612279565b91505b8061079b81612365565b915050610713565b5060008167ffffffffffffffff8111156107cd57634e487b7160e01b600052604160045260246000fd5b60405190808252806020026020018201604052801561080657816020015b6107f3611c9c565b8152602001906001900390816107eb5790505b50905060005b848110156109445733600c6000610824846001612279565b81526020810191909152604001600020600201546001600160a01b03161480610877575033600c6000610858846001612279565b81526020810191909152604001600020600101546001600160a01b0316145b15610932576000610889826001612279565b6000818152600c6020908152604091829020825160c0810184528154815260018201546001600160a01b03908116938201939093526002820154909216928201929092526003820154606082015260048201546080820152600582015460ff16151560a08201528551929350909185908890811061091757634e487b7160e01b600052603260045260246000fd5b602090810291909101015261092d600187612279565b955050505b8061093c81612365565b91505061080c565b50949350505050565b6000818152600260205260408120546001600160a01b0316806104545760405162461bcd60e51b8152602060048201526018602482015277115490cdcc8c4e881a5b9d985b1a59081d1bdad95b88125160421b6044820152606401610588565b6109b5611c9c565b60006109c060085490565b6000908152600c6020908152604091829020825160c0810184528154815260018201546001600160a01b0390811693820193909352600282015490921692820192909252600382015460608201526004820154608082015260059091015460ff16151560a082015292915050565b6000818152600c602052604090206004810154600390910154348214610a965760405162461bcd60e51b815260206004820152601b60248201527f706c656173652070617920746865206c697374656420707269636500000000006044820152606401610588565b6000838152600c602052604081206002810180546001830154336001600160a01b03198316179092556005909201805460ff19169055600b80546001600160a01b03938416949390921692610aea83612313565b9190505550610afd600980546001019055565b806001600160a01b0316826001600160a01b03161415610b52576040516001600160a01b038216903480156108fc02916000818181858888f19350505050158015610b4c573d6000803e3d6000fd5b50610bee565b3460006064610b6186846122b1565b610b6b9190612291565b90506000610b7982846122d0565b6040519091506001600160a01b0386169082156108fc029083906000818181858888f19350505050158015610bb2573d6000803e3d6000fd5b506040516001600160a01b0385169083156108fc029084906000818181858888f19350505050158015610be9573d6000803e3d6000fd5b505050505b5050505050565b60006001600160a01b038216610c5f5760405162461bcd60e51b815260206004820152602960248201527f4552433732313a2061646472657373207a65726f206973206e6f7420612076616044820152683634b21037bbb732b960b91b6064820152608401610588565b506001600160a01b031660009081526003602052604090205490565b6060600180546104699061232a565b610c953383836114e2565b5050565b610ca33383611313565b610cbf5760405162461bcd60e51b815260040161058890612187565b610ccb848484846115b1565b50505050565b6060610cdc82611243565b60008281526006602052604081208054610cf59061232a565b80601f0160208091040260200160405190810160405280929190818152602001828054610d219061232a565b8015610d6e5780601f10610d4357610100808354040283529160200191610d6e565b820191906000526020600020905b815481529060010190602001808311610d5157829003601f168201915b505050505090506000610d8c60408051602081019091526000815290565b9050805160001415610d9f575092915050565b815115610dd1578082604051602001610db99291906120ba565b60405160208183030381529060405292505050919050565b610dda846115e4565b949350505050565b600b5460609060008167ffffffffffffffff811115610e1157634e487b7160e01b600052604160045260246000fd5b604051908082528060200260200182016040528015610e4a57816020015b610e37611c9c565b815260200190600190039081610e2f5790505b5090506000805b83811015610f2d576000610e66826001612279565b6000818152600c6020526040902060058101549192509060ff16151560011415610f18576040805160c0810182528254815260018301546001600160a01b039081166020830152600284015416918101919091526003820154606082015260048201546080820152600582015460ff16151560a08201528551869086908110610eff57634e487b7160e01b600052603260045260246000fd5b6020908102919091010152610f15600185612279565b93505b50508080610f2590612365565b915050610e51565b50909392505050565b6001600160a01b03918216600090815260056020908152604080832093909416825291909152205460ff1690565b6000828152600c60205260409020600201546001600160a01b0316338114610fe25760405162461bcd60e51b815260206004820152602b60248201527f6f6e6c792063757272656e7420686f6c646572206f6620746865206e6674206360448201526a030b71039b2b6361034ba160ad1b6064820152608401610588565b6000838152600c602052604090206005015460ff16156110445760405162461bcd60e51b815260206004820152601a60248201527f74686973206e667420697320616c7265616479206c69737465640000000000006044820152606401610588565b6000838152600c6020526040812060048101849055600501805460ff19166001179055600b80549161107583612365565b9190505550505050565b6007546001600160a01b031633146110ff5760405162461bcd60e51b815260206004820152603b60248201527f536f7272792c206f6e6c79206f776e6572206f662074686520636f6e7472616360448201527f742063616e2075706461746520746865206c697374696e6746656500000000006064820152608401610588565b600a55565b6000600a54341461117d5760405162461bcd60e51b815260206004820152603f60248201527f506c656173652070617920746865206c697374696e672066656520696e206f7260448201527f64657220746f2063726561746520616e64206c69737420796f7572204e4654006064820152608401610588565b600083116111cd5760405162461bcd60e51b815260206004820152601e60248201527f506c6561736520656e746572206120706f7369746976652070726963652000006044820152606401610588565b6111db600880546001019055565b60006111e660085490565b90506111f23382611658565b6111fc8186611672565b61120781858561170c565b600754600a546040516001600160a01b039092169181156108fc0291906000818181858888f19350505050158015610944573d6000803e3d6000fd5b6000818152600260205260409020546001600160a01b03166112a25760405162461bcd60e51b8152602060048201526018602482015277115490cdcc8c4e881a5b9d985b1a59081d1bdad95b88125160421b6044820152606401610588565b50565b600081815260046020526040902080546001600160a01b0319166001600160a01b03841690811790915581906112da8261094d565b6001600160a01b03167f8c5be1e5ebec7d5bd14f71427d1e84f3dd0314c0f7b2291e5b200ac8c7c3b92560405160405180910390a45050565b60008061131f8361094d565b9050806001600160a01b0316846001600160a01b0316148061134657506113468185610f36565b80610dda5750836001600160a01b031661135f846104ec565b6001600160a01b031614949350505050565b826001600160a01b03166113848261094d565b6001600160a01b0316146113aa5760405162461bcd60e51b815260040161058890612226565b6001600160a01b03821661140c5760405162461bcd60e51b8152602060048201526024808201527f4552433732313a207472616e7366657220746f20746865207a65726f206164646044820152637265737360e01b6064820152608401610588565b61141983838360016117b8565b826001600160a01b031661142c8261094d565b6001600160a01b0316146114525760405162461bcd60e51b815260040161058890612226565b600081815260046020908152604080832080546001600160a01b03199081169091556001600160a01b0387811680865260038552838620805460001901905590871680865283862080546001019055868652600290945282852080549092168417909155905184937fddf252ad1be2c89b69c2b068fc378daa952ba7f163c4a11628f55a4df523b3ef91a4505050565b816001600160a01b0316836001600160a01b031614156115445760405162461bcd60e51b815260206004820152601960248201527f4552433732313a20617070726f766520746f2063616c6c6572000000000000006044820152606401610588565b6001600160a01b03838116600081815260056020908152604080832094871680845294825291829020805460ff191686151590811790915591519182527f17307eab39ab6107e8899845ad3d59bd9653f200f220920489ca2b5937696c31910160405180910390a3505050565b6115bc848484611371565b6115c884848484611840565b610ccb5760405162461bcd60e51b8152600401610588906121d4565b60606115ef82611243565b600061160660408051602081019091526000815290565b905060008151116116265760405180602001604052806000815250611651565b806116308461194d565b6040516020016116419291906120ba565b6040516020818303038152906040525b9392505050565b610c958282604051806020016040528060008152506119f8565b6000828152600260205260409020546001600160a01b03166116ed5760405162461bcd60e51b815260206004820152602e60248201527f45524337323155524953746f726167653a2055524920736574206f66206e6f6e60448201526d32bc34b9ba32b73a103a37b5b2b760911b6064820152608401610588565b6000828152600660209081526040909120825161062992840190611ce6565b6040805160c0810182528481523360208083018281528385019283526060840186815260808501888152600160a0870181815260008c8152600c90965297852096518755925192860180546001600160a01b03199081166001600160a01b03958616179091559451600287018054909616931692909217909355915160038401559051600483015591516005909101805460ff1916911515919091179055600b80549161107583612365565b6001811115610ccb576001600160a01b038416156117fe576001600160a01b038416600090815260036020526040812080548392906117f89084906122d0565b90915550505b6001600160a01b03831615610ccb576001600160a01b03831660009081526003602052604081208054839290611835908490612279565b909155505050505050565b60006001600160a01b0384163b1561194257604051630a85bd0160e11b81526001600160a01b0385169063150b7a02906118849033908990889088906004016120e9565b602060405180830381600087803b15801561189e57600080fd5b505af19250505080156118ce575060408051601f3d908101601f191682019092526118cb91810190611f90565b60015b611928573d8080156118fc576040519150601f19603f3d011682016040523d82523d6000602084013e611901565b606091505b5080516119205760405162461bcd60e51b8152600401610588906121d4565b805181602001fd5b6001600160e01b031916630a85bd0160e11b149050610dda565b506001949350505050565b6060600061195a83611a2b565b600101905060008167ffffffffffffffff81111561198857634e487b7160e01b600052604160045260246000fd5b6040519080825280601f01601f1916602001820160405280156119b2576020820181803683370190505b5090508181016020015b600019016f181899199a1a9b1b9c1cb0b131b232b360811b600a86061a8153600a85049450846119eb576119f0565b6119bc565b509392505050565b611a028383611b03565b611a0f6000848484611840565b6106295760405162461bcd60e51b8152600401610588906121d4565b60008072184f03e93ff9f4daa797ed6e38ed64bf6a1f0160401b8310611a6a5772184f03e93ff9f4daa797ed6e38ed64bf6a1f0160401b830492506040015b6d04ee2d6d415b85acef81000000008310611a96576d04ee2d6d415b85acef8100000000830492506020015b662386f26fc100008310611ab457662386f26fc10000830492506010015b6305f5e1008310611acc576305f5e100830492506008015b6127108310611ae057612710830492506004015b60648310611af2576064830492506002015b600a83106104545760010192915050565b6001600160a01b038216611b595760405162461bcd60e51b815260206004820181905260248201527f4552433732313a206d696e7420746f20746865207a65726f20616464726573736044820152606401610588565b6000818152600260205260409020546001600160a01b031615611bbe5760405162461bcd60e51b815260206004820152601c60248201527f4552433732313a20746f6b656e20616c7265616479206d696e746564000000006044820152606401610588565b611bcc6000838360016117b8565b6000818152600260205260409020546001600160a01b031615611c315760405162461bcd60e51b815260206004820152601c60248201527f4552433732313a20746f6b656e20616c7265616479206d696e746564000000006044820152606401610588565b6001600160a01b038216600081815260036020908152604080832080546001019055848352600290915280822080546001600160a01b0319168417905551839291907fddf252ad1be2c89b69c2b068fc378daa952ba7f163c4a11628f55a4df523b3ef908290a45050565b6040518060c001604052806000815260200160006001600160a01b0316815260200160006001600160a01b0316815260200160008152602001600081526020016000151581525090565b828054611cf29061232a565b90600052602060002090601f016020900481019282611d145760008555611d5a565b82601f10611d2d57805160ff1916838001178555611d5a565b82800160010185558215611d5a579182015b82811115611d5a578251825591602001919060010190611d3f565b50611d66929150611d6a565b5090565b5b80821115611d665760008155600101611d6b565b600067ffffffffffffffff80841115611d9a57611d9a612396565b604051601f8501601f19908116603f01168101908282118183101715611dc257611dc2612396565b81604052809350858152868686011115611ddb57600080fd5b858560208301376000602087830101525050509392505050565b80356001600160a01b0381168114611e0c57600080fd5b919050565b600060208284031215611e22578081fd5b61165182611df5565b60008060408385031215611e3d578081fd5b611e4683611df5565b9150611e5460208401611df5565b90509250929050565b600080600060608486031215611e71578081fd5b611e7a84611df5565b9250611e8860208501611df5565b9150604084013590509250925092565b60008060008060808587031215611ead578081fd5b611eb685611df5565b9350611ec460208601611df5565b925060408501359150606085013567ffffffffffffffff811115611ee6578182fd5b8501601f81018713611ef6578182fd5b611f0587823560208401611d7f565b91505092959194509250565b60008060408385031215611f23578182fd5b611f2c83611df5565b915060208301358015158114611f40578182fd5b809150509250929050565b60008060408385031215611f5d578182fd5b611f6683611df5565b946020939093013593505050565b600060208284031215611f85578081fd5b8135611651816123ac565b600060208284031215611fa1578081fd5b8151611651816123ac565b600080600060608486031215611fc0578283fd5b833567ffffffffffffffff811115611fd6578384fd5b8401601f81018613611fe6578384fd5b611ff586823560208401611d7f565b9660208601359650604090950135949350505050565b60006020828403121561201c578081fd5b5035919050565b60008060408385031215612035578182fd5b50508035926020909101359150565b6000815180845261205c8160208601602086016122e7565b601f01601f19169290920160200192915050565b80518252602081015160018060a01b0380821660208501528060408401511660408501525050606081015160608301526080810151608083015260a0810151151560a08301525050565b600083516120cc8184602088016122e7565b8351908301906120e08183602088016122e7565b01949350505050565b6001600160a01b038581168252841660208201526040810183905260806060820181905260009061211c90830184612044565b9695505050505050565b6020808252825182820181905260009190848201906040850190845b8181101561216857612155838551612070565b9284019260c09290920191600101612142565b50909695505050505050565b6020815260006116516020830184612044565b6020808252602d908201527f4552433732313a2063616c6c6572206973206e6f7420746f6b656e206f776e6560408201526c1c881bdc88185c1c1c9bdd9959609a1b606082015260800190565b60208082526032908201527f4552433732313a207472616e7366657220746f206e6f6e20455243373231526560408201527131b2b4bb32b91034b6b83632b6b2b73a32b960711b606082015260800190565b60208082526025908201527f4552433732313a207472616e736665722066726f6d20696e636f72726563742060408201526437bbb732b960d91b606082015260800190565b60c081016104548284612070565b6000821982111561228c5761228c612380565b500190565b6000826122ac57634e487b7160e01b81526012600452602481fd5b500490565b60008160001904831182151516156122cb576122cb612380565b500290565b6000828210156122e2576122e2612380565b500390565b60005b838110156123025781810151838201526020016122ea565b83811115610ccb5750506000910152565b60008161232257612322612380565b506000190190565b600181811c9082168061233e57607f821691505b6020821081141561235f57634e487b7160e01b600052602260045260246000fd5b50919050565b600060001982141561237957612379612380565b5060010190565b634e487b7160e01b600052601160045260246000fd5b634e487b7160e01b600052604160045260246000fd5b6001600160e01b0319811681146112a257600080fdfea2646970667358221220037d12d6ab33445407b75b921cc3d721c70ab67cb20309fc74a1f9a3e41ddd1064736f6c63430008040033",
  "linkReferences": {},
  "deployedLinkReferences": {}
}