{
  "_format": "hh-sol-artifact-1",
  "contractName": "NFTMarketplace",
  "sourceName": "contracts/NFTMarketplace.sol",
  "abi": [
    {
      "inputs": [],
      "stateMutability": "nonpayable",
      "type": "constructor"
    },
    {
      "anonymous": false,
      "inputs": [
        {
          "indexed": true,
          "internalType": "address",
          "name": "owner",
          "type": "address"
        },
        {
          "indexed": true,
          "internalType": "address",
          "name": "approved",
          "type": "address"
        },
        {
          "indexed": true,
          "internalType": "uint256",
          "name": "tokenId",
          "type": "uint256"
        }
      ],
      "name": "Approval",
      "type": "event"
    },
    {
      "anonymous": false,
      "inputs": [
        {
          "indexed": true,
          "internalType": "address",
          "name": "owner",
          "type": "address"
        },
        {
          "indexed": true,
          "internalType": "address",
          "name": "operator",
          "type": "address"
        },
        {
          "indexed": false,
          "internalType": "bool",
          "name": "approved",
          "type": "bool"
        }
      ],
      "name": "ApprovalForAll",
      "type": "event"
    },
    {
      "anonymous": false,
      "inputs": [
        {
          "indexed": true,
          "internalType": "address",
          "name": "from",
          "type": "address"
        },
        {
          "indexed": true,
          "internalType": "address",
          "name": "to",
          "type": "address"
        },
        {
          "indexed": true,
          "internalType": "uint256",
          "name": "tokenId",
          "type": "uint256"
        }
      ],
      "name": "Transfer",
      "type": "event"
    },
    {
      "inputs": [
        {
          "internalType": "address",
          "name": "to",
          "type": "address"
        },
        {
          "internalType": "uint256",
          "name": "tokenId",
          "type": "uint256"
        }
      ],
      "name": "approve",
      "outputs": [],
      "stateMutability": "nonpayable",
      "type": "function"
    },
    {
      "inputs": [
        {
          "internalType": "address",
          "name": "owner",
          "type": "address"
        }
      ],
      "name": "balanceOf",
      "outputs": [
        {
          "internalType": "uint256",
          "name": "",
          "type": "uint256"
        }
      ],
      "stateMutability": "view",
      "type": "function"
    },
    {
      "inputs": [
        {
          "internalType": "string",
          "name": "_tokenURI",
          "type": "string"
        },
        {
          "internalType": "uint256",
          "name": "_price",
          "type": "uint256"
        }
      ],
      "name": "createAndListNFT",
      "outputs": [
        {
          "internalType": "uint256",
          "name": "",
          "type": "uint256"
        }
      ],
      "stateMutability": "payable",
      "type": "function"
    },
    {
      "inputs": [],
      "name": "getAllNFTs",
      "outputs": [
        {
          "components": [
            {
              "internalType": "uint256",
              "name": "_tokenId",
              "type": "uint256"
            },
            {
              "internalType": "address payable",
              "name": "owner",
              "type": "address"
            },
            {
              "internalType": "address payable",
              "name": "seller",
              "type": "address"
            },
            {
              "internalType": "uint256",
              "name": "price",
              "type": "uint256"
            },
            {
              "internalType": "bool",
              "name": "isListed",
              "type": "bool"
            }
          ],
          "internalType": "struct NFTMarketplace.listedNFT[]",
          "name": "",
          "type": "tuple[]"
        }
      ],
      "stateMutability": "view",
      "type": "function"
    },
    {
      "inputs": [
        {
          "internalType": "uint256",
          "name": "tokenId",
          "type": "uint256"
        }
      ],
      "name": "getApproved",
      "outputs": [
        {
          "internalType": "address",
          "name": "",
          "type": "address"
        }
      ],
      "stateMutability": "view",
      "type": "function"
    },
    {
      "inputs": [],
      "name": "getCurrentTokenId",
      "outputs": [
        {
          "internalType": "uint256",
          "name": "",
          "type": "uint256"
        }
      ],
      "stateMutability": "view",
      "type": "function"
    },
    {
      "inputs": [],
      "name": "getListingFee",
      "outputs": [
        {
          "internalType": "uint256",
          "name": "",
          "type": "uint256"
        }
      ],
      "stateMutability": "view",
      "type": "function"
    },
    {
      "inputs": [],
      "name": "getMyNFTs",
      "outputs": [
        {
          "components": [
            {
              "internalType": "uint256",
              "name": "_tokenId",
              "type": "uint256"
            },
            {
              "internalType": "address payable",
              "name": "owner",
              "type": "address"
            },
            {
              "internalType": "address payable",
              "name": "seller",
              "type": "address"
            },
            {
              "internalType": "uint256",
              "name": "price",
              "type": "uint256"
            },
            {
              "internalType": "bool",
              "name": "isListed",
              "type": "bool"
            }
          ],
          "internalType": "struct NFTMarketplace.listedNFT[]",
          "name": "",
          "type": "tuple[]"
        }
      ],
      "stateMutability": "view",
      "type": "function"
    },
    {
      "inputs": [
        {
          "internalType": "uint256",
          "name": "_TokenId",
          "type": "uint256"
        }
      ],
      "name": "getNFT",
      "outputs": [
        {
          "components": [
            {
              "internalType": "uint256",
              "name": "_tokenId",
              "type": "uint256"
            },
            {
              "internalType": "address payable",
              "name": "owner",
              "type": "address"
            },
            {
              "internalType": "address payable",
              "name": "seller",
              "type": "address"
            },
            {
              "internalType": "uint256",
              "name": "price",
              "type": "uint256"
            },
            {
              "internalType": "bool",
              "name": "isListed",
              "type": "bool"
            }
          ],
          "internalType": "struct NFTMarketplace.listedNFT",
          "name": "",
          "type": "tuple"
        }
      ],
      "stateMutability": "view",
      "type": "function"
    },
    {
      "inputs": [
        {
          "internalType": "address",
          "name": "owner",
          "type": "address"
        },
        {
          "internalType": "address",
          "name": "operator",
          "type": "address"
        }
      ],
      "name": "isApprovedForAll",
      "outputs": [
        {
          "internalType": "bool",
          "name": "",
          "type": "bool"
        }
      ],
      "stateMutability": "view",
      "type": "function"
    },
    {
      "inputs": [],
      "name": "latestNFTminted",
      "outputs": [
        {
          "components": [
            {
              "internalType": "uint256",
              "name": "_tokenId",
              "type": "uint256"
            },
            {
              "internalType": "address payable",
              "name": "owner",
              "type": "address"
            },
            {
              "internalType": "address payable",
              "name": "seller",
              "type": "address"
            },
            {
              "internalType": "uint256",
              "name": "price",
              "type": "uint256"
            },
            {
              "internalType": "bool",
              "name": "isListed",
              "type": "bool"
            }
          ],
          "internalType": "struct NFTMarketplace.listedNFT",
          "name": "",
          "type": "tuple"
        }
      ],
      "stateMutability": "view",
      "type": "function"
    },
    {
      "inputs": [],
      "name": "name",
      "outputs": [
        {
          "internalType": "string",
          "name": "",
          "type": "string"
        }
      ],
      "stateMutability": "view",
      "type": "function"
    },
    {
      "inputs": [
        {
          "internalType": "uint256",
          "name": "tokenId",
          "type": "uint256"
        }
      ],
      "name": "ownerOf",
      "outputs": [
        {
          "internalType": "address",
          "name": "",
          "type": "address"
        }
      ],
      "stateMutability": "view",
      "type": "function"
    },
    {
      "inputs": [
        {
          "internalType": "uint256",
          "name": "tokenId",
          "type": "uint256"
        }
      ],
      "name": "processPurchase",
      "outputs": [],
      "stateMutability": "payable",
      "type": "function"
    },
    {
      "inputs": [
        {
          "internalType": "address",
          "name": "from",
          "type": "address"
        },
        {
          "internalType": "address",
          "name": "to",
          "type": "address"
        },
        {
          "internalType": "uint256",
          "name": "tokenId",
          "type": "uint256"
        }
      ],
      "name": "safeTransferFrom",
      "outputs": [],
      "stateMutability": "nonpayable",
      "type": "function"
    },
    {
      "inputs": [
        {
          "internalType": "address",
          "name": "from",
          "type": "address"
        },
        {
          "internalType": "address",
          "name": "to",
          "type": "address"
        },
        {
          "internalType": "uint256",
          "name": "tokenId",
          "type": "uint256"
        },
        {
          "internalType": "bytes",
          "name": "data",
          "type": "bytes"
        }
      ],
      "name": "safeTransferFrom",
      "outputs": [],
      "stateMutability": "nonpayable",
      "type": "function"
    },
    {
      "inputs": [
        {
          "internalType": "address",
          "name": "operator",
          "type": "address"
        },
        {
          "internalType": "bool",
          "name": "approved",
          "type": "bool"
        }
      ],
      "name": "setApprovalForAll",
      "outputs": [],
      "stateMutability": "nonpayable",
      "type": "function"
    },
    {
      "inputs": [
        {
          "internalType": "bytes4",
          "name": "interfaceId",
          "type": "bytes4"
        }
      ],
      "name": "supportsInterface",
      "outputs": [
        {
          "internalType": "bool",
          "name": "",
          "type": "bool"
        }
      ],
      "stateMutability": "view",
      "type": "function"
    },
    {
      "inputs": [],
      "name": "symbol",
      "outputs": [
        {
          "internalType": "string",
          "name": "",
          "type": "string"
        }
      ],
      "stateMutability": "view",
      "type": "function"
    },
    {
      "inputs": [
        {
          "internalType": "uint256",
          "name": "tokenId",
          "type": "uint256"
        }
      ],
      "name": "tokenURI",
      "outputs": [
        {
          "internalType": "string",
          "name": "",
          "type": "string"
        }
      ],
      "stateMutability": "view",
      "type": "function"
    },
    {
      "inputs": [
        {
          "internalType": "address",
          "name": "from",
          "type": "address"
        },
        {
          "internalType": "address",
          "name": "to",
          "type": "address"
        },
        {
          "internalType": "uint256",
          "name": "tokenId",
          "type": "uint256"
        }
      ],
      "name": "transferFrom",
      "outputs": [],
      "stateMutability": "nonpayable",
      "type": "function"
    },
    {
      "inputs": [
        {
          "internalType": "uint256",
          "name": "_newListingFee",
          "type": "uint256"
        }
      ],
      "name": "updateListingFee",
      "outputs": [],
      "stateMutability": "payable",
      "type": "function"
    }
  ],
  "bytecode": "0x60806040526509184e72a000600a553480156200001b57600080fd5b50604080518082018252600981526813919513585c9ad95d60ba1b60208083019182528351808501909452600384526213919560ea1b908401528151919291620000689160009162000099565b5080516200007e90600190602084019062000099565b5050600780546001600160a01b03191633179055506200017c565b828054620000a7906200013f565b90600052602060002090601f016020900481019282620000cb576000855562000116565b82601f10620000e657805160ff191683800117855562000116565b8280016001018555821562000116579182015b8281111562000116578251825591602001919060010190620000f9565b506200012492915062000128565b5090565b5b8082111562000124576000815560010162000129565b600181811c908216806200015457607f821691505b602082108114156200017657634e487b7160e01b600052602260045260246000fd5b50919050565b61212f806200018c6000396000f3fe6080604052600436106101355760003560e01c80636ed409d5116100ab578063b88d4fde1161006f578063b88d4fde1461034d578063b8fe6abe1461036d578063c87b56dd14610382578063e0391b09146103a2578063e985e9c5146103b7578063f79d91ae1461040057600080fd5b80636ed409d5146102d05780636ef13dcc146102e557806370a08231146102f857806395d89b4114610318578063a22cb4651461032d57600080fd5b8063349c3b07116100fd578063349c3b071461020b57806342842e0e1461022c578063561892361461024c578063576f7ea714610261578063629cb2e41461028e5780636352211e146102b057600080fd5b806301ffc9a71461013a57806306fdde031461016f578063081812fc14610191578063095ea7b3146101c957806323b872dd146101eb575b600080fd5b34801561014657600080fd5b5061015a610155366004611d35565b610413565b60405190151581526020015b60405180910390f35b34801561017b57600080fd5b50610184610465565b6040516101669190611f01565b34801561019d57600080fd5b506101b16101ac366004611dc3565b6104f7565b6040516001600160a01b039091168152602001610166565b3480156101d557600080fd5b506101e96101e4366004611d0c565b61051e565b005b3480156101f757600080fd5b506101e9610206366004611c1e565b610639565b61021e610219366004611d6d565b61066a565b604051908152602001610166565b34801561023857600080fd5b506101e9610247366004611c1e565b610773565b34801561025857600080fd5b5061021e61078e565b34801561026d57600080fd5b5061028161027c366004611dc3565b61079e565b6040516101669190611ff8565b34801561029a57600080fd5b506102a3610808565b6040516101669190611eb3565b3480156102bc57600080fd5b506101b16102cb366004611dc3565b610a4d565b3480156102dc57600080fd5b50610281610aad565b6101e96102f3366004611dc3565b610b24565b34801561030457600080fd5b5061021e610313366004611bd2565b610c5d565b34801561032457600080fd5b50610184610ce3565b34801561033957600080fd5b506101e9610348366004611cd2565b610cf2565b34801561035957600080fd5b506101e9610368366004611c59565b610d01565b34801561037957600080fd5b50600a5461021e565b34801561038e57600080fd5b5061018461039d366004611dc3565b610d33565b3480156103ae57600080fd5b506102a3610e44565b3480156103c357600080fd5b5061015a6103d2366004611bec565b6001600160a01b03918216600090815260056020908152604080832093909416825291909152205460ff1690565b6101e961040e366004611dc3565b610f8b565b60006001600160e01b031982166380ac58cd60e01b148061044457506001600160e01b03198216635b5e139f60e01b145b8061045f57506301ffc9a760e01b6001600160e01b03198316145b92915050565b60606000805461047490612061565b80601f01602080910402602001604051908101604052809291908181526020018280546104a090612061565b80156104ed5780601f106104c2576101008083540402835291602001916104ed565b820191906000526020600020905b8154815290600101906020018083116104d057829003601f168201915b5050505050905090565b600061050282611010565b506000908152600460205260409020546001600160a01b031690565b600061052982610a4d565b9050806001600160a01b0316836001600160a01b0316141561059c5760405162461bcd60e51b815260206004820152602160248201527f4552433732313a20617070726f76616c20746f2063757272656e74206f776e656044820152603960f91b60648201526084015b60405180910390fd5b336001600160a01b03821614806105b857506105b881336103d2565b61062a5760405162461bcd60e51b815260206004820152603d60248201527f4552433732313a20617070726f76652063616c6c6572206973206e6f7420746f60448201527f6b656e206f776e6572206f7220617070726f76656420666f7220616c6c0000006064820152608401610593565b6106348383611072565b505050565b61064333826110e0565b61065f5760405162461bcd60e51b815260040161059390611f14565b61063483838361115e565b6000600a5434146106e35760405162461bcd60e51b815260206004820152603f60248201527f506c656173652070617920746865206c697374696e672066656520696e206f7260448201527f64657220746f2063726561746520616e64206c69737420796f7572204e4654006064820152608401610593565b600082116107335760405162461bcd60e51b815260206004820152601e60248201527f506c6561736520656e746572206120706f7369746976652070726963652000006044820152606401610593565b610741600880546001019055565b600061074c60085490565b905061075833826112cf565b61076281856112e9565b61076c8184611383565b9392505050565b61063483838360405180602001604052806000815250610d01565b600061079960085490565b905090565b6107a6611a79565b506000908152600b6020908152604091829020825160a0810184528154815260018201546001600160a01b03908116938201939093526002820154909216928201929092526003820154606082015260049091015460ff161515608082015290565b6060600061081560085490565b905060008060005b838110156108ad5733600b6000610835846001612006565b81526020810191909152604001600020600101546001600160a01b03161480610888575033600b6000610869846001612006565b81526020810191909152604001600020600201546001600160a01b0316145b1561089b57610898600183612006565b91505b806108a58161209c565b91505061081d565b5060008167ffffffffffffffff8111156108d757634e487b7160e01b600052604160045260246000fd5b60405190808252806020026020018201604052801561091057816020015b6108fd611a79565b8152602001906001900390816108f55790505b50905060005b84811015610a445733600b600061092e846001612006565b81526020810191909152604001600020600101546001600160a01b03161480610981575033600b6000610962846001612006565b81526020810191909152604001600020600201546001600160a01b0316145b15610a32576000610993826001612006565b6000818152600b6020908152604091829020825160a0810184528154815260018201546001600160a01b039081169382019390935260028201549092169282019290925260038201546060820152600482015460ff161515608082015285519293509091859088908110610a1757634e487b7160e01b600052603260045260246000fd5b6020908102919091010152610a2d600187612006565b955050505b80610a3c8161209c565b915050610916565b50949350505050565b6000818152600260205260408120546001600160a01b03168061045f5760405162461bcd60e51b8152602060048201526018602482015277115490cdcc8c4e881a5b9d985b1a59081d1bdad95b88125160421b6044820152606401610593565b610ab5611a79565b6000610ac060085490565b6000908152600b6020908152604091829020825160a0810184528154815260018201546001600160a01b03908116938201939093526002820154909216928201929092526003820154606082015260049091015460ff161515608082015292915050565b6000818152600b6020526040902060030154348114610b855760405162461bcd60e51b815260206004820152601b60248201527f706c656173652070617920746865206c697374656420707269636500000000006044820152606401610593565b6000828152600b602052604090206002810180546001600160a01b0319811633179091556004909101805460ff191660011790556001600160a01b0316610bd0600980546001019055565b610bdb30338561115e565b610be5308461051e565b600754600a546040516001600160a01b039092169181156108fc0291906000818181858888f19350505050158015610c21573d6000803e3d6000fd5b506040516001600160a01b038216903480156108fc02916000818181858888f19350505050158015610c57573d6000803e3d6000fd5b50505050565b60006001600160a01b038216610cc75760405162461bcd60e51b815260206004820152602960248201527f4552433732313a2061646472657373207a65726f206973206e6f7420612076616044820152683634b21037bbb732b960b91b6064820152608401610593565b506001600160a01b031660009081526003602052604090205490565b60606001805461047490612061565b610cfd338383611420565b5050565b610d0b33836110e0565b610d275760405162461bcd60e51b815260040161059390611f14565b610c57848484846114ef565b6060610d3e82611010565b60008281526006602052604081208054610d5790612061565b80601f0160208091040260200160405190810160405280929190818152602001828054610d8390612061565b8015610dd05780601f10610da557610100808354040283529160200191610dd0565b820191906000526020600020905b815481529060010190602001808311610db357829003601f168201915b505050505090506000610dee60408051602081019091526000815290565b9050805160001415610e01575092915050565b815115610e33578082604051602001610e1b929190611e47565b60405160208183030381529060405292505050919050565b610e3c84611522565b949350505050565b60606000610e5160085490565b905060008167ffffffffffffffff811115610e7c57634e487b7160e01b600052604160045260246000fd5b604051908082528060200260200182016040528015610eb557816020015b610ea2611a79565b815260200190600190039081610e9a5790505b5090506000805b83811015610f82576000610ed1826001612006565b6000818152600b6020908152604091829020825160a0810184528154815260018201546001600160a01b039081169382019390935260028201549092169282019290925260038201546060820152600482015460ff161515608082015286519293509091869086908110610f5557634e487b7160e01b600052603260045260246000fd5b6020908102919091010152610f6b600185612006565b935050508080610f7a9061209c565b915050610ebc565b50909392505050565b6007546001600160a01b0316331461100b5760405162461bcd60e51b815260206004820152603b60248201527f536f7272792c206f6e6c79206f776e6572206f662074686520636f6e7472616360448201527f742063616e2075706461746520746865206c697374696e6746656500000000006064820152608401610593565b600a55565b6000818152600260205260409020546001600160a01b031661106f5760405162461bcd60e51b8152602060048201526018602482015277115490cdcc8c4e881a5b9d985b1a59081d1bdad95b88125160421b6044820152606401610593565b50565b600081815260046020526040902080546001600160a01b0319166001600160a01b03841690811790915581906110a782610a4d565b6001600160a01b03167f8c5be1e5ebec7d5bd14f71427d1e84f3dd0314c0f7b2291e5b200ac8c7c3b92560405160405180910390a45050565b6000806110ec83610a4d565b9050806001600160a01b0316846001600160a01b0316148061113357506001600160a01b0380821660009081526005602090815260408083209388168352929052205460ff165b80610e3c5750836001600160a01b031661114c846104f7565b6001600160a01b031614949350505050565b826001600160a01b031661117182610a4d565b6001600160a01b0316146111975760405162461bcd60e51b815260040161059390611fb3565b6001600160a01b0382166111f95760405162461bcd60e51b8152602060048201526024808201527f4552433732313a207472616e7366657220746f20746865207a65726f206164646044820152637265737360e01b6064820152608401610593565b6112068383836001611595565b826001600160a01b031661121982610a4d565b6001600160a01b03161461123f5760405162461bcd60e51b815260040161059390611fb3565b600081815260046020908152604080832080546001600160a01b03199081169091556001600160a01b0387811680865260038552838620805460001901905590871680865283862080546001019055868652600290945282852080549092168417909155905184937fddf252ad1be2c89b69c2b068fc378daa952ba7f163c4a11628f55a4df523b3ef91a4505050565b610cfd82826040518060200160405280600081525061161d565b6000828152600260205260409020546001600160a01b03166113645760405162461bcd60e51b815260206004820152602e60248201527f45524337323155524953746f726167653a2055524920736574206f66206e6f6e60448201526d32bc34b9ba32b73a103a37b5b2b760911b6064820152608401610593565b6000828152600660209081526040909120825161063492840190611aa7565b6040805160a081018252838152306020808301828152338486018181526060860188815260016080880181815260008c8152600b9097529890952096518755925193860180546001600160a01b039586166001600160a01b03199182161790915590516002870180549190951691161790925551600384015592516004909201805492151560ff1990931692909217909155610cfd91908461115e565b816001600160a01b0316836001600160a01b031614156114825760405162461bcd60e51b815260206004820152601960248201527f4552433732313a20617070726f766520746f2063616c6c6572000000000000006044820152606401610593565b6001600160a01b03838116600081815260056020908152604080832094871680845294825291829020805460ff191686151590811790915591519182527f17307eab39ab6107e8899845ad3d59bd9653f200f220920489ca2b5937696c31910160405180910390a3505050565b6114fa84848461115e565b61150684848484611650565b610c575760405162461bcd60e51b815260040161059390611f61565b606061152d82611010565b600061154460408051602081019091526000815290565b90506000815111611564576040518060200160405280600081525061076c565b8061156e8461175d565b60405160200161157f929190611e47565b6040516020818303038152906040529392505050565b6001811115610c57576001600160a01b038416156115db576001600160a01b038416600090815260036020526040812080548392906115d590849061201e565b90915550505b6001600160a01b03831615610c57576001600160a01b03831660009081526003602052604081208054839290611612908490612006565b909155505050505050565b6116278383611808565b6116346000848484611650565b6106345760405162461bcd60e51b815260040161059390611f61565b60006001600160a01b0384163b1561175257604051630a85bd0160e11b81526001600160a01b0385169063150b7a0290611694903390899088908890600401611e76565b602060405180830381600087803b1580156116ae57600080fd5b505af19250505080156116de575060408051601f3d908101601f191682019092526116db91810190611d51565b60015b611738573d80801561170c576040519150601f19603f3d011682016040523d82523d6000602084013e611711565b606091505b5080516117305760405162461bcd60e51b815260040161059390611f61565b805181602001fd5b6001600160e01b031916630a85bd0160e11b149050610e3c565b506001949350505050565b6060600061176a836119a1565b600101905060008167ffffffffffffffff81111561179857634e487b7160e01b600052604160045260246000fd5b6040519080825280601f01601f1916602001820160405280156117c2576020820181803683370190505b5090508181016020015b600019016f181899199a1a9b1b9c1cb0b131b232b360811b600a86061a8153600a85049450846117fb57611800565b6117cc565b509392505050565b6001600160a01b03821661185e5760405162461bcd60e51b815260206004820181905260248201527f4552433732313a206d696e7420746f20746865207a65726f20616464726573736044820152606401610593565b6000818152600260205260409020546001600160a01b0316156118c35760405162461bcd60e51b815260206004820152601c60248201527f4552433732313a20746f6b656e20616c7265616479206d696e746564000000006044820152606401610593565b6118d1600083836001611595565b6000818152600260205260409020546001600160a01b0316156119365760405162461bcd60e51b815260206004820152601c60248201527f4552433732313a20746f6b656e20616c7265616479206d696e746564000000006044820152606401610593565b6001600160a01b038216600081815260036020908152604080832080546001019055848352600290915280822080546001600160a01b0319168417905551839291907fddf252ad1be2c89b69c2b068fc378daa952ba7f163c4a11628f55a4df523b3ef908290a45050565b60008072184f03e93ff9f4daa797ed6e38ed64bf6a1f0160401b83106119e05772184f03e93ff9f4daa797ed6e38ed64bf6a1f0160401b830492506040015b6d04ee2d6d415b85acef81000000008310611a0c576d04ee2d6d415b85acef8100000000830492506020015b662386f26fc100008310611a2a57662386f26fc10000830492506010015b6305f5e1008310611a42576305f5e100830492506008015b6127108310611a5657612710830492506004015b60648310611a68576064830492506002015b600a831061045f5760010192915050565b6040805160a08101825260008082526020820181905291810182905260608101829052608081019190915290565b828054611ab390612061565b90600052602060002090601f016020900481019282611ad55760008555611b1b565b82601f10611aee57805160ff1916838001178555611b1b565b82800160010185558215611b1b579182015b82811115611b1b578251825591602001919060010190611b00565b50611b27929150611b2b565b5090565b5b80821115611b275760008155600101611b2c565b600067ffffffffffffffff80841115611b5b57611b5b6120cd565b604051601f8501601f19908116603f01168101908282118183101715611b8357611b836120cd565b81604052809350858152868686011115611b9c57600080fd5b858560208301376000602087830101525050509392505050565b80356001600160a01b0381168114611bcd57600080fd5b919050565b600060208284031215611be3578081fd5b61076c82611bb6565b60008060408385031215611bfe578081fd5b611c0783611bb6565b9150611c1560208401611bb6565b90509250929050565b600080600060608486031215611c32578081fd5b611c3b84611bb6565b9250611c4960208501611bb6565b9150604084013590509250925092565b60008060008060808587031215611c6e578081fd5b611c7785611bb6565b9350611c8560208601611bb6565b925060408501359150606085013567ffffffffffffffff811115611ca7578182fd5b8501601f81018713611cb7578182fd5b611cc687823560208401611b40565b91505092959194509250565b60008060408385031215611ce4578182fd5b611ced83611bb6565b915060208301358015158114611d01578182fd5b809150509250929050565b60008060408385031215611d1e578182fd5b611d2783611bb6565b946020939093013593505050565b600060208284031215611d46578081fd5b813561076c816120e3565b600060208284031215611d62578081fd5b815161076c816120e3565b60008060408385031215611d7f578182fd5b823567ffffffffffffffff811115611d95578283fd5b8301601f81018513611da5578283fd5b611db485823560208401611b40565b95602094909401359450505050565b600060208284031215611dd4578081fd5b5035919050565b60008151808452611df3816020860160208601612035565b601f01601f19169290920160200192915050565b805182526020808201516001600160a01b039081169184019190915260408083015190911690830152606080820151908301526080908101511515910152565b60008351611e59818460208801612035565b835190830190611e6d818360208801612035565b01949350505050565b6001600160a01b0385811682528416602082015260408101839052608060608201819052600090611ea990830184611ddb565b9695505050505050565b6020808252825182820181905260009190848201906040850190845b81811015611ef557611ee2838551611e07565b9284019260a09290920191600101611ecf565b50909695505050505050565b60208152600061076c6020830184611ddb565b6020808252602d908201527f4552433732313a2063616c6c6572206973206e6f7420746f6b656e206f776e6560408201526c1c881bdc88185c1c1c9bdd9959609a1b606082015260800190565b60208082526032908201527f4552433732313a207472616e7366657220746f206e6f6e20455243373231526560408201527131b2b4bb32b91034b6b83632b6b2b73a32b960711b606082015260800190565b60208082526025908201527f4552433732313a207472616e736665722066726f6d20696e636f72726563742060408201526437bbb732b960d91b606082015260800190565b60a0810161045f8284611e07565b60008219821115612019576120196120b7565b500190565b600082821015612030576120306120b7565b500390565b60005b83811015612050578181015183820152602001612038565b83811115610c575750506000910152565b600181811c9082168061207557607f821691505b6020821081141561209657634e487b7160e01b600052602260045260246000fd5b50919050565b60006000198214156120b0576120b06120b7565b5060010190565b634e487b7160e01b600052601160045260246000fd5b634e487b7160e01b600052604160045260246000fd5b6001600160e01b03198116811461106f57600080fdfea264697066735822122004422ae64878b37431bd8bb2a878cb3c8fda9280478ddd3ad3d58e3468b4c42364736f6c63430008040033",
  "linkReferences": {},
  "deployedLinkReferences": {}
}